:1000000055C000006EC000006CC000006AC0000057
:1000100068C0000066C0000064C0000062C000004C
:1000200060C00000A9C000005CC000005AC0000011
:1000300058C0000056C0000054C0000052C000006C
:1000400050C000004EC000004CC000004AC000007C
:1000500048C0000046C0000044C0000042C000008C
:1000600040C000003EC000003CC000003AC000009C
:1000700038C0000036C0000034C0000032C00000AC
:1000800030C000002EC000002CC000002AC00000BC
:1000900028C0000026C0000024C0000022C00000CC
:1000A00020C000001EC000001CC0000011241FBEA4
:1000B000CFEFDAE0DEBFCDBF11E0A0E0B1E0E4E3D6
:1000C000F6E002C005900D92A433B107D9F711E014
:1000D000A4E3B1E001C01D92AD34B107E1F7A2D2B3
:1000E000A7C28ECF0895FC01A081B1814C9121E07F
:1000F00030E0C901048002C0880F991F0A94E2F71A
:10010000809584238C93A281B3818C91048002C05A
:10011000220F331F0A94E2F7822B8C930895DC019F
:10012000E8E6F0E0808181608083EBE6F0E020810A
:1001300081E090E00C9002C0880F991F0A94E2F7CA
:10014000282B208381E012968C93129711969C9114
:10015000119780913401892B8093340183B18923D5
:1001600013968C930895FC01672B19F055834483F3
:1001700008955783468308951F920F920FB60F92EA
:1001800011240F931F932F933F934F935F936F937C
:100190007F938F939F93AF93BF93EF93FF9303B19D
:1001A000909134010923E0E4FCE93197F1F783B140
:1001B00089230817A1F590910F01809110018823E0
:1001C000A1F0102F192380911101181771F08823C5
:1001D00029F0E0911401F091150104C0E0911201A1
:1001E000F0911301099510931101909117018091DD
:1001F00018018823A1F0102F1923809119011817D5
:1002000071F0882329F0E0911C01F0911D0104C0D8
:10021000E0911A01F0911B01099510931901FF91CA
:10022000EF91BF91AF919F918F917F916F915F916E
:100230004F913F912F911F910F910F900FBE0F90F3
:100240001F901895FC01A081B1812C9181E090E074
:10025000048002C0880F991F0A94E2F7282B2C9380
:1002600008958530910519F18730910519F0892B92
:10027000D9F10895A6E4B1E0ECE2F1E087E0019065
:100280000D928150E1F7E0914601F0914701208104
:1002900081E090E000904A0102C0880F991F0A9403
:1002A000E2F7282B208381E0809335010895AFE3A6
:1002B000B1E0E5E2F1E087E001900D928150E1F7D5
:1002C000E0913F01F0914001208181E090E00090B9
:1002D000430102C0880F991F0A94E2F7282B20835C
:1002E00081E0809337010895A8E3B1E0EEE1F1E009
:1002F00087E001900D928150E1F7E0913801F09193
:100300003901208181E090E000903C0102C0880F1B
:10031000991F0A94E2F7282B208381E0809336010D
:100320000895FC01A281B38134816130710541F4EB
:100330008C9102C0660F771F3A95E2F7862B0AC0B0
:100340002C9181E090E002C0880F991F3A95E2F766
:10035000809582238C930895FC01A281B38134811E
:10036000672B59F42C9181E090E002C0880F991F0F
:100370003A95E2F7282B2C9308952C9181E090E098
:1003800002C0880F991F3A95E2F7809582238C93DB
:100390000895FC01A281B3812C9181E090E004805A
:1003A00002C0880F991F0A94E2F728272C9308951A
:1003B000DC011296ED91FC91139714963C911497E1
:1003C000672B59F4208181E090E002C0880F991FCB
:1003D0003A95E2F7282B20830BC0208181E090E042
:1003E00002C0880F991F3A95E2F780958223808397
:1003F00084EC99E020E931E0F9013197F1F70197B8
:10040000D9F71296ED91FC911397208181E090E04D
:1004100014960C9002C0880F991F0A94E2F72827BF
:10042000208384EC99E020E931E0F9013197F1F77C
:100430000197D9F70895FF920F931F9310913501FB
:1004400000913601F0903701112329F086E491E004
:1004500060E070E0ADDF002329F088E391E061E027
:1004600070E0A6DFFF2029F08FE391E061E070E00B
:100470009FDF112329F086E491E060E070E098DFCF
:10048000002329F088E391E061E070E091DFFF2034
:1004900029F08FE391E061E070E08ADF1F910F9116
:1004A000FF900895549A5C9A0895529A5A9A089522
:1004B000519A599A0895E6E8F0E084E699E191832B
:1004C0008083808191819695879590938900809310
:1004D0008800A1E8B0E08C9188618C93E0E8F0E0BE
:1004E0008081826080838C9185608C93808180681C
:1004F00080830895E0914801F0914901208181E0D5
:1005000090E000904A0102C0880F991F0A94E2F718
:100510002827208388EB9BE020E931E0F90131971F
:10052000F1F70197D9F7E0914801F0914901208155
:1005300081E090E000904A0102C0880F991F0A9460
:10054000E2F72827208388EB9BE020E931E0F901DE
:100550003197F1F70197D9F70895809133018823F6
:10056000C9F08091860090918700845F9140843F1C
:10057000910548F484EF90E0909387008093860083
:100580001092330124C08091860090918700845F8F
:10059000914019C080918600909187008C509E4FA9
:1005A000893B910550F088EB90E090938700809311
:1005B000860081E0809333010AC08091860090918B
:1005C00087008C509E4F9093870080938600809187
:1005D00086009091870096958795909389008093E7
:1005E000880008950F931F9385E090E03ADE87E03E
:1005F00090E037DE549A519A80E091E074DD87E014
:1006000091E071DD06E111E0C80189DDC80161E01A
:1006100070E04DEA52E0A7DD559A259A4CDF1F9114
:100620000F9108951092D800DDDF789463DFFECF3C
:04063000F894FFCF6C
:1006340024002500032300240025000023000308D0
:1006440000087200720000010001720072002400B0
:1006540025000023002A002B00052900270028007C
:040664000726000164
:00000001FF
