:1000000055C000006EC000006CC000006AC0000057
:1000100068C0000066C0000064C0000062C000004C
:1000200060C00000A9C000005CC000005AC0000011
:1000300058C0000056C0000054C0000052C000006C
:1000400050C000004EC000004CC000004AC000007C
:1000500048C0000046C0000044C0000042C000008C
:1000600040C000003EC000003CC000003AC000009C
:1000700038C0000036C0000034C0000032C00000AC
:1000800030C000002EC000002CC000002AC00000BC
:1000900028C0000026C0000024C0000022C00000CC
:1000A00020C000001EC000001CC0000011241FBEA4
:1000B000CFEFDAE0DEBFCDBF11E0A0E0B1E0E0E9D4
:1000C000F7E002C005900D92A433B107D9F711E013
:1000D000A4E3B1E001C01D92A535B107E1F751D20B
:1000E00055C38ECF0895FC01A081B1814C9121E0D0
:1000F00030E0C901048002C0880F991F0A94E2F71A
:10010000809584238C93A281B3818C91048002C05A
:10011000220F331F0A94E2F7822B8C930895DC019F
:10012000E8E6F0E0808181608083EBE6F0E020810A
:1001300081E090E00C9002C0880F991F0A94E2F7CA
:10014000282B208381E012968C93129711969C9114
:10015000119780913401892B8093340183B18923D5
:1001600013968C930895FC01672B19F055834483F3
:1001700008955783468308951F920F920FB60F92EA
:1001800011240F931F932F933F934F935F936F937C
:100190007F938F939F93AF93BF93EF93FF9303B19D
:1001A000909134010923E0E4FCE93197F1F783B140
:1001B00089230817A1F590910F01809110018823E0
:1001C000A1F0102F192380911101181771F08823C5
:1001D00029F0E0911401F091150104C0E0911201A1
:1001E000F0911301099510931101909117018091DD
:1001F00018018823A1F0102F1923809119011817D5
:1002000071F0882329F0E0911C01F0911D0104C0D8
:10021000E0911A01F0911B01099510931901FF91CA
:10022000EF91BF91AF919F918F917F916F915F916E
:100230004F913F912F911F910F910F900FBE0F90F3
:100240001F901895FC01A081B1812C9181E090E074
:10025000048002C0880F991F0A94E2F7282B2C9380
:1002600008958530910519F18730910519F0892B92
:10027000D9F10895AEE4B1E0ECE2F1E087E001905D
:100280000D928150E1F7E0914E01F0914F012081F4
:1002900081E090E00090520102C0880F991F0A94FB
:1002A000E2F7282B208381E0809335010895A7E4AD
:1002B000B1E0E5E2F1E087E001900D928150E1F7D5
:1002C000E0914701F0914801208181E090E00090A9
:1002D0004B0102C0880F991F0A94E2F7282B208354
:1002E00081E0809337010895A0E4B1E0EEE1F1E010
:1002F00087E001900D928150E1F7E0914001F0918B
:100300004101208181E090E00090440102C0880F0B
:10031000991F0A94E2F7282B208381E0809336010D
:100320000895FC01A281B38134816130710541F4EB
:100330008C9102C0660F771F3A95E2F7862B0AC0B0
:100340002C9181E090E002C0880F991F3A95E2F766
:10035000809582238C930895FC01A281B38134811E
:10036000672B59F42C9181E090E002C0880F991F0F
:100370003A95E2F7282B2C9308952C9181E090E098
:1003800002C0880F991F3A95E2F7809582238C93DB
:100390000895FC01A281B3812C9181E090E004805A
:1003A00002C0880F991F0A94E2F728272C9308951A
:1003B000DC011296ED91FC91139714963C911497E1
:1003C000672B59F4208181E090E002C0880F991FCB
:1003D0003A95E2F7282B20830BC0208181E090E042
:1003E00002C0880F991F3A95E2F780958223808397
:1003F00084EC99E020E931E0F9013197F1F70197B8
:10040000D9F71296ED91FC911397208181E090E04D
:1004100014960C9002C0880F991F0A94E2F72827BF
:10042000208384EC99E020E931E0F9013197F1F77C
:100430000197D9F70895FF920F931F9310913501FB
:1004400000913601F0903701112329F08EE491E0FC
:1004500060E070E0ADDF002329F080E491E061E02E
:1004600070E0A6DFFF2029F087E491E061E070E012
:100470009FDF112329F08EE491E060E070E098DFC7
:10048000002329F080E491E061E070E091DFFF203B
:1004900029F087E491E061E070E08ADF1F910F911D
:1004A000FF900895E0915001F0915101208181E089
:1004B00090E00090520102C0880F991F0A94E2F761
:1004C0002827208388EB9BE020E931E0F901319770
:1004D000F1F70197D9F7E0915001F0915101208196
:1004E00081E090E00090520102C0880F991F0A94A9
:1004F000E2F72827208308958091380190913901EF
:1005000001969093390180933801089580913A01C2
:1005100090913B01019690933B0180933A0108959D
:100520008EE491E061E070E0FCCEEF92FF920F93D9
:100530001F9385E090E095DE87E090E092DE7BDF20
:1005400080E091E0D0DD87E091E0CDDD8EE0E82E27
:1005500081E0F82EC70161E070E04CE752E003DE75
:1005600006E111E0C80161E070E046E852E0FBDD21
:10057000C801D5DDC701D3DD1F910F91FF90EF902A
:100580000895A4E0B0E0E6ECF2E0ECC01092D800F0
:10059000CCDF85E090E0A0E0B0E089839A83AB8374
:1005A000BC83789424EC39E041E0A42EB12C00E91E
:1005B00011E095E0C92ED12CE12CF12C05C0C80129
:1005C0000197F1F72150304021153105C1F720E0A6
:1005D00030E080913E0190913F01892B11F421E0A0
:1005E00030E080913C0190913D0128233923232B59
:1005F00051F084ED90E3F8013197F1F70197D9F7C5
:100600008EE491E0C6DE20E030E080913C019091E4
:100610003D01892B11F421E030E080913E01909161
:100620003F0128233923232B51F084EC99E0F80172
:100630003197F1F70197D9F787E491E0AADE80912D
:100640003C0190913D01892B51F180913E019091A7
:100650003F01892B21F184EC99E0F8013197F1F702
:100660000197D9F787E491E094DE89819A81AB8183
:10067000BC810197A109B10989839A83AB83BC83AB
:1006800089819A81AB81BC810097A105B10539F4BC
:100690008EE491E07EDEC982DA82EB82FC82809178
:1006A000380190913901892B29F48EE491E061E0C1
:1006B00070E052DE8091380190913901019729F460
:1006C0008EE491E061E070E02CDE80913801909141
:1006D00039018230910529F4B0923D01A0923C018C
:1006E0000AC0039744F01092390110923801109219
:1006F0003D0110923C0180913A0190913B01892B80
:1007000029F487E491E060E070E026DE80913A0110
:1007100090913B01019729F487E491E060E070E05B
:1007200000DE80913A0190913B018230910529F4DD
:10073000B0923F01A0923E010AC0039744F010928C
:100740003B0110923A0110923F0110923E0124ECBD
:1007500039E035CF2F923F924F925F926F927F9206
:100760008F929F92AF92BF92CF92DF92EF92FF92C1
:100770000F931F93CF93DF93CDB7DEB7CA1BDB0B6D
:100780000FB6F894DEBF0FBECDBF0994F894FFCF2B
:100790002400250003230024002500002300030873
:1007A0000008720072000001000172007200240053
:1007B00025000023002A002B00052900270028001F
:0407C0000726000008
:00000001FF
